{
  "_format": "hh-sol-artifact-1",
  "contractName": "Paki",
  "sourceName": "contracts/Paki.sol",
  "abi": [
    {
      "inputs": [],
      "stateMutability": "nonpayable",
      "type": "constructor"
    },
    {
      "anonymous": false,
      "inputs": [
        {
          "indexed": true,
          "internalType": "address",
          "name": "owner",
          "type": "address"
        },
        {
          "indexed": true,
          "internalType": "address",
          "name": "spender",
          "type": "address"
        },
        {
          "indexed": false,
          "internalType": "uint256",
          "name": "value",
          "type": "uint256"
        }
      ],
      "name": "Approval",
      "type": "event"
    },
    {
      "anonymous": false,
      "inputs": [
        {
          "indexed": false,
          "internalType": "address",
          "name": "account",
          "type": "address"
        }
      ],
      "name": "Paused",
      "type": "event"
    },
    {
      "anonymous": false,
      "inputs": [
        {
          "indexed": true,
          "internalType": "bytes32",
          "name": "role",
          "type": "bytes32"
        },
        {
          "indexed": true,
          "internalType": "bytes32",
          "name": "previousAdminRole",
          "type": "bytes32"
        },
        {
          "indexed": true,
          "internalType": "bytes32",
          "name": "newAdminRole",
          "type": "bytes32"
        }
      ],
      "name": "RoleAdminChanged",
      "type": "event"
    },
    {
      "anonymous": false,
      "inputs": [
        {
          "indexed": true,
          "internalType": "bytes32",
          "name": "role",
          "type": "bytes32"
        },
        {
          "indexed": true,
          "internalType": "address",
          "name": "account",
          "type": "address"
        },
        {
          "indexed": true,
          "internalType": "address",
          "name": "sender",
          "type": "address"
        }
      ],
      "name": "RoleGranted",
      "type": "event"
    },
    {
      "anonymous": false,
      "inputs": [
        {
          "indexed": true,
          "internalType": "bytes32",
          "name": "role",
          "type": "bytes32"
        },
        {
          "indexed": true,
          "internalType": "address",
          "name": "account",
          "type": "address"
        },
        {
          "indexed": true,
          "internalType": "address",
          "name": "sender",
          "type": "address"
        }
      ],
      "name": "RoleRevoked",
      "type": "event"
    },
    {
      "anonymous": false,
      "inputs": [
        {
          "indexed": false,
          "internalType": "uint256",
          "name": "id",
          "type": "uint256"
        }
      ],
      "name": "Snapshot",
      "type": "event"
    },
    {
      "anonymous": false,
      "inputs": [
        {
          "indexed": true,
          "internalType": "address",
          "name": "from",
          "type": "address"
        },
        {
          "indexed": true,
          "internalType": "address",
          "name": "to",
          "type": "address"
        },
        {
          "indexed": false,
          "internalType": "uint256",
          "name": "value",
          "type": "uint256"
        }
      ],
      "name": "Transfer",
      "type": "event"
    },
    {
      "anonymous": false,
      "inputs": [
        {
          "indexed": false,
          "internalType": "address",
          "name": "account",
          "type": "address"
        }
      ],
      "name": "Unpaused",
      "type": "event"
    },
    {
      "inputs": [],
      "name": "DEFAULT_ADMIN_ROLE",
      "outputs": [
        {
          "internalType": "bytes32",
          "name": "",
          "type": "bytes32"
        }
      ],
      "stateMutability": "view",
      "type": "function"
    },
    {
      "inputs": [],
      "name": "DOMAIN_SEPARATOR",
      "outputs": [
        {
          "internalType": "bytes32",
          "name": "",
          "type": "bytes32"
        }
      ],
      "stateMutability": "view",
      "type": "function"
    },
    {
      "inputs": [],
      "name": "PAUSER_ROLE",
      "outputs": [
        {
          "internalType": "bytes32",
          "name": "",
          "type": "bytes32"
        }
      ],
      "stateMutability": "view",
      "type": "function"
    },
    {
      "inputs": [],
      "name": "SNAPSHOT_ROLE",
      "outputs": [
        {
          "internalType": "bytes32",
          "name": "",
          "type": "bytes32"
        }
      ],
      "stateMutability": "view",
      "type": "function"
    },
    {
      "inputs": [
        {
          "internalType": "address",
          "name": "owner",
          "type": "address"
        },
        {
          "internalType": "address",
          "name": "spender",
          "type": "address"
        }
      ],
      "name": "allowance",
      "outputs": [
        {
          "internalType": "uint256",
          "name": "",
          "type": "uint256"
        }
      ],
      "stateMutability": "view",
      "type": "function"
    },
    {
      "inputs": [
        {
          "internalType": "address",
          "name": "spender",
          "type": "address"
        },
        {
          "internalType": "uint256",
          "name": "amount",
          "type": "uint256"
        }
      ],
      "name": "approve",
      "outputs": [
        {
          "internalType": "bool",
          "name": "",
          "type": "bool"
        }
      ],
      "stateMutability": "nonpayable",
      "type": "function"
    },
    {
      "inputs": [
        {
          "internalType": "address",
          "name": "account",
          "type": "address"
        }
      ],
      "name": "balanceOf",
      "outputs": [
        {
          "internalType": "uint256",
          "name": "",
          "type": "uint256"
        }
      ],
      "stateMutability": "view",
      "type": "function"
    },
    {
      "inputs": [
        {
          "internalType": "address",
          "name": "account",
          "type": "address"
        },
        {
          "internalType": "uint256",
          "name": "snapshotId",
          "type": "uint256"
        }
      ],
      "name": "balanceOfAt",
      "outputs": [
        {
          "internalType": "uint256",
          "name": "",
          "type": "uint256"
        }
      ],
      "stateMutability": "view",
      "type": "function"
    },
    {
      "inputs": [
        {
          "internalType": "uint256",
          "name": "amount",
          "type": "uint256"
        }
      ],
      "name": "burn",
      "outputs": [],
      "stateMutability": "nonpayable",
      "type": "function"
    },
    {
      "inputs": [
        {
          "internalType": "address",
          "name": "account",
          "type": "address"
        },
        {
          "internalType": "uint256",
          "name": "amount",
          "type": "uint256"
        }
      ],
      "name": "burnFrom",
      "outputs": [],
      "stateMutability": "nonpayable",
      "type": "function"
    },
    {
      "inputs": [],
      "name": "decimals",
      "outputs": [
        {
          "internalType": "uint8",
          "name": "",
          "type": "uint8"
        }
      ],
      "stateMutability": "view",
      "type": "function"
    },
    {
      "inputs": [
        {
          "internalType": "address",
          "name": "spender",
          "type": "address"
        },
        {
          "internalType": "uint256",
          "name": "subtractedValue",
          "type": "uint256"
        }
      ],
      "name": "decreaseAllowance",
      "outputs": [
        {
          "internalType": "bool",
          "name": "",
          "type": "bool"
        }
      ],
      "stateMutability": "nonpayable",
      "type": "function"
    },
    {
      "inputs": [
        {
          "internalType": "bytes32",
          "name": "role",
          "type": "bytes32"
        }
      ],
      "name": "getRoleAdmin",
      "outputs": [
        {
          "internalType": "bytes32",
          "name": "",
          "type": "bytes32"
        }
      ],
      "stateMutability": "view",
      "type": "function"
    },
    {
      "inputs": [
        {
          "internalType": "bytes32",
          "name": "role",
          "type": "bytes32"
        },
        {
          "internalType": "address",
          "name": "account",
          "type": "address"
        }
      ],
      "name": "grantRole",
      "outputs": [],
      "stateMutability": "nonpayable",
      "type": "function"
    },
    {
      "inputs": [
        {
          "internalType": "bytes32",
          "name": "role",
          "type": "bytes32"
        },
        {
          "internalType": "address",
          "name": "account",
          "type": "address"
        }
      ],
      "name": "hasRole",
      "outputs": [
        {
          "internalType": "bool",
          "name": "",
          "type": "bool"
        }
      ],
      "stateMutability": "view",
      "type": "function"
    },
    {
      "inputs": [
        {
          "internalType": "address",
          "name": "spender",
          "type": "address"
        },
        {
          "internalType": "uint256",
          "name": "addedValue",
          "type": "uint256"
        }
      ],
      "name": "increaseAllowance",
      "outputs": [
        {
          "internalType": "bool",
          "name": "",
          "type": "bool"
        }
      ],
      "stateMutability": "nonpayable",
      "type": "function"
    },
    {
      "inputs": [],
      "name": "name",
      "outputs": [
        {
          "internalType": "string",
          "name": "",
          "type": "string"
        }
      ],
      "stateMutability": "view",
      "type": "function"
    },
    {
      "inputs": [
        {
          "internalType": "address",
          "name": "owner",
          "type": "address"
        }
      ],
      "name": "nonces",
      "outputs": [
        {
          "internalType": "uint256",
          "name": "",
          "type": "uint256"
        }
      ],
      "stateMutability": "view",
      "type": "function"
    },
    {
      "inputs": [],
      "name": "pause",
      "outputs": [],
      "stateMutability": "nonpayable",
      "type": "function"
    },
    {
      "inputs": [],
      "name": "paused",
      "outputs": [
        {
          "internalType": "bool",
          "name": "",
          "type": "bool"
        }
      ],
      "stateMutability": "view",
      "type": "function"
    },
    {
      "inputs": [
        {
          "internalType": "address",
          "name": "owner",
          "type": "address"
        },
        {
          "internalType": "address",
          "name": "spender",
          "type": "address"
        },
        {
          "internalType": "uint256",
          "name": "value",
          "type": "uint256"
        },
        {
          "internalType": "uint256",
          "name": "deadline",
          "type": "uint256"
        },
        {
          "internalType": "uint8",
          "name": "v",
          "type": "uint8"
        },
        {
          "internalType": "bytes32",
          "name": "r",
          "type": "bytes32"
        },
        {
          "internalType": "bytes32",
          "name": "s",
          "type": "bytes32"
        }
      ],
      "name": "permit",
      "outputs": [],
      "stateMutability": "nonpayable",
      "type": "function"
    },
    {
      "inputs": [
        {
          "internalType": "bytes32",
          "name": "role",
          "type": "bytes32"
        },
        {
          "internalType": "address",
          "name": "account",
          "type": "address"
        }
      ],
      "name": "renounceRole",
      "outputs": [],
      "stateMutability": "nonpayable",
      "type": "function"
    },
    {
      "inputs": [
        {
          "internalType": "bytes32",
          "name": "role",
          "type": "bytes32"
        },
        {
          "internalType": "address",
          "name": "account",
          "type": "address"
        }
      ],
      "name": "revokeRole",
      "outputs": [],
      "stateMutability": "nonpayable",
      "type": "function"
    },
    {
      "inputs": [],
      "name": "snapshot",
      "outputs": [],
      "stateMutability": "nonpayable",
      "type": "function"
    },
    {
      "inputs": [
        {
          "internalType": "bytes4",
          "name": "interfaceId",
          "type": "bytes4"
        }
      ],
      "name": "supportsInterface",
      "outputs": [
        {
          "internalType": "bool",
          "name": "",
          "type": "bool"
        }
      ],
      "stateMutability": "view",
      "type": "function"
    },
    {
      "inputs": [],
      "name": "symbol",
      "outputs": [
        {
          "internalType": "string",
          "name": "",
          "type": "string"
        }
      ],
      "stateMutability": "view",
      "type": "function"
    },
    {
      "inputs": [],
      "name": "totalSupply",
      "outputs": [
        {
          "internalType": "uint256",
          "name": "",
          "type": "uint256"
        }
      ],
      "stateMutability": "view",
      "type": "function"
    },
    {
      "inputs": [
        {
          "internalType": "uint256",
          "name": "snapshotId",
          "type": "uint256"
        }
      ],
      "name": "totalSupplyAt",
      "outputs": [
        {
          "internalType": "uint256",
          "name": "",
          "type": "uint256"
        }
      ],
      "stateMutability": "view",
      "type": "function"
    },
    {
      "inputs": [
        {
          "internalType": "address",
          "name": "to",
          "type": "address"
        },
        {
          "internalType": "uint256",
          "name": "amount",
          "type": "uint256"
        }
      ],
      "name": "transfer",
      "outputs": [
        {
          "internalType": "bool",
          "name": "",
          "type": "bool"
        }
      ],
      "stateMutability": "nonpayable",
      "type": "function"
    },
    {
      "inputs": [
        {
          "internalType": "address",
          "name": "from",
          "type": "address"
        },
        {
          "internalType": "address",
          "name": "to",
          "type": "address"
        },
        {
          "internalType": "uint256",
          "name": "amount",
          "type": "uint256"
        }
      ],
      "name": "transferFrom",
      "outputs": [
        {
          "internalType": "bool",
          "name": "",
          "type": "bool"
        }
      ],
      "stateMutability": "nonpayable",
      "type": "function"
    },
    {
      "inputs": [],
      "name": "unpause",
      "outputs": [],
      "stateMutability": "nonpayable",
      "type": "function"
    }
  ],
  "bytecode": "0x6101406040523480156200001257600080fd5b506040518060400160405280600481526020017f50616b6900000000000000000000000000000000000000000000000000000000815250806040518060400160405280600181526020017f31000000000000000000000000000000000000000000000000000000000000008152506040518060400160405280600481526020017f50616b69000000000000000000000000000000000000000000000000000000008152506040518060400160405280600281526020017f504b00000000000000000000000000000000000000000000000000000000000081525081600390805190602001906200010492919062000967565b5080600490805190602001906200011d92919062000967565b5050506000600a60006101000a81548160ff02191690831515021790555060008280519060200120905060008280519060200120905060007f8b73c3c69bb8fe3d512ecc4cf759cc79239f7b179b0ffacaa9a75d522b39400f90508260e081815250508161010081815250504660a08181525050620001a4818484620002af60201b60201c565b608081815250503073ffffffffffffffffffffffffffffffffffffffff1660c08173ffffffffffffffffffffffffffffffffffffffff1660601b81525050806101208181525050505050505050620002066000801b33620002eb60201b60201c565b620002387f5fdbd35e8da83ee755d5e62a539e5ed7f47126abede0b8b10f9ea43dc6eed07f33620002eb60201b60201c565b6200026a7f65d7a28e3265b37a6474929f336521b332c1681b933f6cb9f3376673440d862a33620002eb60201b60201c565b620002a9336200027f620003dd60201b60201c565b600a6200028d919062000c1f565b620f42406200029d919062000d5c565b620003e660201b60201c565b62000f40565b60008383834630604051602001620002cc95949392919062000a98565b6040516020818303038152906040528051906020012090509392505050565b620002fd82826200055f60201b60201c565b620003d95760016009600084815260200190815260200160002060000160008373ffffffffffffffffffffffffffffffffffffffff1673ffffffffffffffffffffffffffffffffffffffff16815260200190815260200160002060006101000a81548160ff0219169083151502179055506200037e620005ca60201b60201c565b73ffffffffffffffffffffffffffffffffffffffff168173ffffffffffffffffffffffffffffffffffffffff16837f2f8788117e7eff1d82e926ec794901d17c78024a50270940304540a733656f0d60405160405180910390a45b5050565b60006012905090565b600073ffffffffffffffffffffffffffffffffffffffff168273ffffffffffffffffffffffffffffffffffffffff16141562000459576040517f08c379a0000000000000000000000000000000000000000000000000000000008152600401620004509062000b17565b60405180910390fd5b6200046d60008383620005d260201b60201c565b806002600082825462000481919062000b67565b92505081905550806000808473ffffffffffffffffffffffffffffffffffffffff1673ffffffffffffffffffffffffffffffffffffffff1681526020019081526020016000206000828254620004d8919062000b67565b925050819055508173ffffffffffffffffffffffffffffffffffffffff16600073ffffffffffffffffffffffffffffffffffffffff167fddf252ad1be2c89b69c2b068fc378daa952ba7f163c4a11628f55a4df523b3ef836040516200053f919062000b39565b60405180910390a36200055b600083836200064260201b60201c565b5050565b60006009600084815260200190815260200160002060000160008373ffffffffffffffffffffffffffffffffffffffff1673ffffffffffffffffffffffffffffffffffffffff16815260200190815260200160002060009054906101000a900460ff16905092915050565b600033905090565b620005e26200064760201b60201c565b1562000625576040517f08c379a00000000000000000000000000000000000000000000000000000000081526004016200061c9062000af5565b60405180910390fd5b6200063d8383836200065e60201b62000e9d1760201c565b505050565b505050565b6000600a60009054906101000a900460ff16905090565b620006768383836200075960201b62000f571760201c565b600073ffffffffffffffffffffffffffffffffffffffff168373ffffffffffffffffffffffffffffffffffffffff161415620006d357620006bd826200075e60201b60201c565b620006cd620007c160201b60201c565b62000754565b600073ffffffffffffffffffffffffffffffffffffffff168273ffffffffffffffffffffffffffffffffffffffff16141562000730576200071a836200075e60201b60201c565b6200072a620007c160201b60201c565b62000753565b62000741836200075e60201b60201c565b62000752826200075e60201b60201c565b5b5b505050565b505050565b620007be600560008373ffffffffffffffffffffffffffffffffffffffff1673ffffffffffffffffffffffffffffffffffffffff168152602001908152602001600020620007b283620007e560201b60201c565b6200082d60201b60201c565b50565b620007e36006620007d7620008b960201b60201c565b6200082d60201b60201c565b565b60008060008373ffffffffffffffffffffffffffffffffffffffff1673ffffffffffffffffffffffffffffffffffffffff168152602001908152602001600020549050919050565b60006200083f620008c360201b60201c565b9050806200085684600001620008e160201b60201c565b1015620008b45782600001819080600181540180825580915050600190039060005260206000200160009091909190915055826001018290806001815401808255809150506001900390600052602060002001600090919091909150555b505050565b6000600254905090565b6000620008dc60086200095960201b62000f5c1760201c565b905090565b60008082805490501415620008fa576000905062000954565b81600183805490506200090e919062000dbd565b8154811062000946577f4e487b7100000000000000000000000000000000000000000000000000000000600052603260045260246000fd5b906000526020600020015490505b919050565b600081600001549050919050565b828054620009759062000e4d565b90600052602060002090601f016020900481019282620009995760008555620009e5565b82601f10620009b457805160ff1916838001178555620009e5565b82800160010185558215620009e5579182015b82811115620009e4578251825591602001919060010190620009c7565b5b509050620009f49190620009f8565b5090565b5b8082111562000a13576000816000905550600101620009f9565b5090565b62000a228162000df8565b82525050565b62000a338162000e0c565b82525050565b600062000a4860108362000b56565b915062000a558262000eee565b602082019050919050565b600062000a6f601f8362000b56565b915062000a7c8262000f17565b602082019050919050565b62000a928162000e36565b82525050565b600060a08201905062000aaf600083018862000a28565b62000abe602083018762000a28565b62000acd604083018662000a28565b62000adc606083018562000a87565b62000aeb608083018462000a17565b9695505050505050565b6000602082019050818103600083015262000b108162000a39565b9050919050565b6000602082019050818103600083015262000b328162000a60565b9050919050565b600060208201905062000b50600083018462000a87565b92915050565b600082825260208201905092915050565b600062000b748262000e36565b915062000b818362000e36565b9250827fffffffffffffffffffffffffffffffffffffffffffffffffffffffffffffffff0382111562000bb95762000bb862000e83565b5b828201905092915050565b6000808291508390505b600185111562000c165780860481111562000bee5762000bed62000e83565b5b600185161562000bfe5780820291505b808102905062000c0e8562000ee1565b945062000bce565b94509492505050565b600062000c2c8262000e36565b915062000c398362000e40565b925062000c687fffffffffffffffffffffffffffffffffffffffffffffffffffffffffffffffff848462000c70565b905092915050565b60008262000c82576001905062000d55565b8162000c92576000905062000d55565b816001811462000cab576002811462000cb65762000cec565b600191505062000d55565b60ff84111562000ccb5762000cca62000e83565b5b8360020a91508482111562000ce55762000ce462000e83565b5b5062000d55565b5060208310610133831016604e8410600b841016171562000d265782820a90508381111562000d205762000d1f62000e83565b5b62000d55565b62000d35848484600162000bc4565b9250905081840481111562000d4f5762000d4e62000e83565b5b81810290505b9392505050565b600062000d698262000e36565b915062000d768362000e36565b9250817fffffffffffffffffffffffffffffffffffffffffffffffffffffffffffffffff048311821515161562000db25762000db162000e83565b5b828202905092915050565b600062000dca8262000e36565b915062000dd78362000e36565b92508282101562000ded5762000dec62000e83565b5b828203905092915050565b600062000e058262000e16565b9050919050565b6000819050919050565b600073ffffffffffffffffffffffffffffffffffffffff82169050919050565b6000819050919050565b600060ff82169050919050565b6000600282049050600182168062000e6657607f821691505b6020821081141562000e7d5762000e7c62000eb2565b5b50919050565b7f4e487b7100000000000000000000000000000000000000000000000000000000600052601160045260246000fd5b7f4e487b7100000000000000000000000000000000000000000000000000000000600052602260045260246000fd5b60008160011c9050919050565b7f5061757361626c653a2070617573656400000000000000000000000000000000600082015250565b7f45524332303a206d696e7420746f20746865207a65726f206164647265737300600082015250565b60805160a05160c05160601c60e0516101005161012051613cf362000f9360003960006116570152600061169901526000611678015260006115ad015260006116030152600061162c0152613cf36000f3fe608060405234801561001057600080fd5b50600436106101e55760003560e01c80637028e2cd1161010f578063981b24d0116100a2578063d505accf11610071578063d505accf146105a8578063d547741f146105c4578063dd62ed3e146105e0578063e63ab1e914610610576101e5565b8063981b24d0146104fa578063a217fddf1461052a578063a457c2d714610548578063a9059cbb14610578576101e5565b80638456cb59116100de5780638456cb591461049857806391d14854146104a257806395d89b41146104d25780639711715a146104f0576101e5565b80637028e2cd146103fe57806370a082311461041c57806379cc67901461044c5780637ecebe0014610468576101e5565b8063313ce567116101875780633f4ba83a116101565780633f4ba83a1461038a57806342966c68146103945780634ee2cd7e146103b05780635c975abb146103e0576101e5565b8063313ce567146103025780633644e5151461032057806336568abe1461033e578063395093511461035a576101e5565b806318160ddd116101c357806318160ddd1461026857806323b872dd14610286578063248a9ca3146102b65780632f2ff15d146102e6576101e5565b806301ffc9a7146101ea57806306fdde031461021a578063095ea7b314610238575b600080fd5b61020460048036038101906101ff9190612ab9565b61062e565b6040516102119190612fab565b60405180910390f35b6102226106a8565b60405161022f91906130da565b60405180910390f35b610252600480360381019061024d9190612a18565b61073a565b60405161025f9190612fab565b60405180910390f35b61027061075d565b60405161027d919061339c565b60405180910390f35b6102a0600480360381019061029b919061292b565b610767565b6040516102ad9190612fab565b60405180910390f35b6102d060048036038101906102cb9190612a54565b610796565b6040516102dd9190612fc6565b60405180910390f35b61030060048036038101906102fb9190612a7d565b6107b6565b005b61030a6107d7565b60405161031791906133b7565b60405180910390f35b6103286107e0565b6040516103359190612fc6565b60405180910390f35b61035860048036038101906103539190612a7d565b6107ef565b005b610374600480360381019061036f9190612a18565b610872565b6040516103819190612fab565b60405180910390f35b6103926108a9565b005b6103ae60048036038101906103a99190612ae2565b6108de565b005b6103ca60048036038101906103c59190612a18565b6108f2565b6040516103d7919061339c565b60405180910390f35b6103e8610962565b6040516103f59190612fab565b60405180910390f35b610406610979565b6040516104139190612fc6565b60405180910390f35b610436600480360381019061043191906128c6565b61099d565b604051610443919061339c565b60405180910390f35b61046660048036038101906104619190612a18565b6109e5565b005b610482600480360381019061047d91906128c6565b610a05565b60405161048f919061339c565b60405180910390f35b6104a0610a55565b005b6104bc60048036038101906104b79190612a7d565b610a8a565b6040516104c99190612fab565b60405180910390f35b6104da610af5565b6040516104e791906130da565b60405180910390f35b6104f8610b87565b005b610514600480360381019061050f9190612ae2565b610bbd565b604051610521919061339c565b60405180910390f35b610532610bee565b60405161053f9190612fc6565b60405180910390f35b610562600480360381019061055d9190612a18565b610bf5565b60405161056f9190612fab565b60405180910390f35b610592600480360381019061058d9190612a18565b610c6c565b60405161059f9190612fab565b60405180910390f35b6105c260048036038101906105bd919061297a565b610c8f565b005b6105de60048036038101906105d99190612a7d565b610dd1565b005b6105fa60048036038101906105f591906128ef565b610df2565b604051610607919061339c565b60405180910390f35b610618610e79565b6040516106259190612fc6565b60405180910390f35b60007f7965db0b000000000000000000000000000000000000000000000000000000007bffffffffffffffffffffffffffffffffffffffffffffffffffffffff1916827bffffffffffffffffffffffffffffffffffffffffffffffffffffffff191614806106a157506106a082610f6a565b5b9050919050565b6060600380546106b7906135f6565b80601f01602080910402602001604051908101604052809291908181526020018280546106e3906135f6565b80156107305780601f1061070557610100808354040283529160200191610730565b820191906000526020600020905b81548152906001019060200180831161071357829003601f168201915b5050505050905090565b600080610745610fd4565b9050610752818585610fdc565b600191505092915050565b6000600254905090565b600080610772610fd4565b905061077f8582856111a7565b61078a858585611233565b60019150509392505050565b600060096000838152602001908152602001600020600101549050919050565b6107bf82610796565b6107c8816114b4565b6107d283836114c8565b505050565b60006012905090565b60006107ea6115a9565b905090565b6107f7610fd4565b73ffffffffffffffffffffffffffffffffffffffff168173ffffffffffffffffffffffffffffffffffffffff1614610864576040517f08c379a000000000000000000000000000000000000000000000000000000000815260040161085b9061337c565b60405180910390fd5b61086e82826116c3565b5050565b60008061087d610fd4565b905061089e81858561088f8589610df2565b61089991906133f9565b610fdc565b600191505092915050565b7f65d7a28e3265b37a6474929f336521b332c1681b933f6cb9f3376673440d862a6108d3816114b4565b6108db6117a5565b50565b6108ef6108e9610fd4565b82611847565b50565b600080600061093f84600560008873ffffffffffffffffffffffffffffffffffffffff1673ffffffffffffffffffffffffffffffffffffffff168152602001908152602001600020611a1e565b9150915081610956576109518561099d565b610958565b805b9250505092915050565b6000600a60009054906101000a900460ff16905090565b7f5fdbd35e8da83ee755d5e62a539e5ed7f47126abede0b8b10f9ea43dc6eed07f81565b60008060008373ffffffffffffffffffffffffffffffffffffffff1673ffffffffffffffffffffffffffffffffffffffff168152602001908152602001600020549050919050565b6109f7826109f1610fd4565b836111a7565b610a018282611847565b5050565b6000610a4e600b60008473ffffffffffffffffffffffffffffffffffffffff1673ffffffffffffffffffffffffffffffffffffffff168152602001908152602001600020610f5c565b9050919050565b7f65d7a28e3265b37a6474929f336521b332c1681b933f6cb9f3376673440d862a610a7f816114b4565b610a87611b3a565b50565b60006009600084815260200190815260200160002060000160008373ffffffffffffffffffffffffffffffffffffffff1673ffffffffffffffffffffffffffffffffffffffff16815260200190815260200160002060009054906101000a900460ff16905092915050565b606060048054610b04906135f6565b80601f0160208091040260200160405190810160405280929190818152602001828054610b30906135f6565b8015610b7d5780601f10610b5257610100808354040283529160200191610b7d565b820191906000526020600020905b815481529060010190602001808311610b6057829003601f168201915b5050505050905090565b7f5fdbd35e8da83ee755d5e62a539e5ed7f47126abede0b8b10f9ea43dc6eed07f610bb1816114b4565b610bb9611bdd565b5050565b6000806000610bcd846006611a1e565b9150915081610be357610bde61075d565b610be5565b805b92505050919050565b6000801b81565b600080610c00610fd4565b90506000610c0e8286610df2565b905083811015610c53576040517f08c379a0000000000000000000000000000000000000000000000000000000008152600401610c4a9061335c565b60405180910390fd5b610c608286868403610fdc565b60019250505092915050565b600080610c77610fd4565b9050610c84818585611233565b600191505092915050565b83421115610cd2576040517f08c379a0000000000000000000000000000000000000000000000000000000008152600401610cc99061321c565b60405180910390fd5b60007f6e71edae12b1b97f4d1f60370fef10105fa2faae0126114a169c64845d6126c9888888610d018c611c33565b89604051602001610d1796959493929190612fe1565b6040516020818303038152906040528051906020012090506000610d3a82611c91565b90506000610d4a82878787611cab565b90508973ffffffffffffffffffffffffffffffffffffffff168173ffffffffffffffffffffffffffffffffffffffff1614610dba576040517f08c379a0000000000000000000000000000000000000000000000000000000008152600401610db1906132bc565b60405180910390fd5b610dc58a8a8a610fdc565b50505050505050505050565b610dda82610796565b610de3816114b4565b610ded83836116c3565b505050565b6000600160008473ffffffffffffffffffffffffffffffffffffffff1673ffffffffffffffffffffffffffffffffffffffff16815260200190815260200160002060008373ffffffffffffffffffffffffffffffffffffffff1673ffffffffffffffffffffffffffffffffffffffff16815260200190815260200160002054905092915050565b7f65d7a28e3265b37a6474929f336521b332c1681b933f6cb9f3376673440d862a81565b610ea8838383610f57565b600073ffffffffffffffffffffffffffffffffffffffff168373ffffffffffffffffffffffffffffffffffffffff161415610ef357610ee682611cd6565b610eee611d29565b610f52565b600073ffffffffffffffffffffffffffffffffffffffff168273ffffffffffffffffffffffffffffffffffffffff161415610f3e57610f3183611cd6565b610f39611d29565b610f51565b610f4783611cd6565b610f5082611cd6565b5b5b505050565b505050565b600081600001549050919050565b60007f01ffc9a7000000000000000000000000000000000000000000000000000000007bffffffffffffffffffffffffffffffffffffffffffffffffffffffff1916827bffffffffffffffffffffffffffffffffffffffffffffffffffffffff1916149050919050565b600033905090565b600073ffffffffffffffffffffffffffffffffffffffff168373ffffffffffffffffffffffffffffffffffffffff16141561104c576040517f08c379a00000000000000000000000000000000000000000000000000000000081526004016110439061331c565b60405180910390fd5b600073ffffffffffffffffffffffffffffffffffffffff168273ffffffffffffffffffffffffffffffffffffffff1614156110bc576040517f08c379a00000000000000000000000000000000000000000000000000000000081526004016110b3906131dc565b60405180910390fd5b80600160008573ffffffffffffffffffffffffffffffffffffffff1673ffffffffffffffffffffffffffffffffffffffff16815260200190815260200160002060008473ffffffffffffffffffffffffffffffffffffffff1673ffffffffffffffffffffffffffffffffffffffff168152602001908152602001600020819055508173ffffffffffffffffffffffffffffffffffffffff168373ffffffffffffffffffffffffffffffffffffffff167f8c5be1e5ebec7d5bd14f71427d1e84f3dd0314c0f7b2291e5b200ac8c7c3b9258360405161119a919061339c565b60405180910390a3505050565b60006111b38484610df2565b90507fffffffffffffffffffffffffffffffffffffffffffffffffffffffffffffffff811461122d578181101561121f576040517f08c379a0000000000000000000000000000000000000000000000000000000008152600401611216906131fc565b60405180910390fd5b61122c8484848403610fdc565b5b50505050565b600073ffffffffffffffffffffffffffffffffffffffff168373ffffffffffffffffffffffffffffffffffffffff1614156112a3576040517f08c379a000000000000000000000000000000000000000000000000000000000815260040161129a906132fc565b60405180910390fd5b600073ffffffffffffffffffffffffffffffffffffffff168273ffffffffffffffffffffffffffffffffffffffff161415611313576040517f08c379a000000000000000000000000000000000000000000000000000000000815260040161130a9061315c565b60405180910390fd5b61131e838383611d3d565b60008060008573ffffffffffffffffffffffffffffffffffffffff1673ffffffffffffffffffffffffffffffffffffffff168152602001908152602001600020549050818110156113a4576040517f08c379a000000000000000000000000000000000000000000000000000000000815260040161139b9061323c565b60405180910390fd5b8181036000808673ffffffffffffffffffffffffffffffffffffffff1673ffffffffffffffffffffffffffffffffffffffff16815260200190815260200160002081905550816000808573ffffffffffffffffffffffffffffffffffffffff1673ffffffffffffffffffffffffffffffffffffffff168152602001908152602001600020600082825461143791906133f9565b925050819055508273ffffffffffffffffffffffffffffffffffffffff168473ffffffffffffffffffffffffffffffffffffffff167fddf252ad1be2c89b69c2b068fc378daa952ba7f163c4a11628f55a4df523b3ef8460405161149b919061339c565b60405180910390a36114ae848484611d95565b50505050565b6114c5816114c0610fd4565b611d9a565b50565b6114d28282610a8a565b6115a55760016009600084815260200190815260200160002060000160008373ffffffffffffffffffffffffffffffffffffffff1673ffffffffffffffffffffffffffffffffffffffff16815260200190815260200160002060006101000a81548160ff02191690831515021790555061154a610fd4565b73ffffffffffffffffffffffffffffffffffffffff168173ffffffffffffffffffffffffffffffffffffffff16837f2f8788117e7eff1d82e926ec794901d17c78024a50270940304540a733656f0d60405160405180910390a45b5050565b60007f000000000000000000000000000000000000000000000000000000000000000073ffffffffffffffffffffffffffffffffffffffff163073ffffffffffffffffffffffffffffffffffffffff1614801561162557507f000000000000000000000000000000000000000000000000000000000000000046145b15611652577f000000000000000000000000000000000000000000000000000000000000000090506116c0565b6116bd7f00000000000000000000000000000000000000000000000000000000000000007f00000000000000000000000000000000000000000000000000000000000000007f0000000000000000000000000000000000000000000000000000000000000000611e37565b90505b90565b6116cd8282610a8a565b156117a15760006009600084815260200190815260200160002060000160008373ffffffffffffffffffffffffffffffffffffffff1673ffffffffffffffffffffffffffffffffffffffff16815260200190815260200160002060006101000a81548160ff021916908315150217905550611746610fd4565b73ffffffffffffffffffffffffffffffffffffffff168173ffffffffffffffffffffffffffffffffffffffff16837ff6391f5c32d9c69d2a47ea670b442974b53935d1edc7fd64eb21e047a839171b60405160405180910390a45b5050565b6117ad610962565b6117ec576040517f08c379a00000000000000000000000000000000000000000000000000000000081526004016117e39061317c565b60405180910390fd5b6000600a60006101000a81548160ff0219169083151502179055507f5db9ee0a495bf2e6ff9c91a7834c1ba4fdd244a5e8aa4e537bd38aeae4b073aa611830610fd4565b60405161183d9190612f90565b60405180910390a1565b600073ffffffffffffffffffffffffffffffffffffffff168273ffffffffffffffffffffffffffffffffffffffff1614156118b7576040517f08c379a00000000000000000000000000000000000000000000000000000000081526004016118ae906132dc565b60405180910390fd5b6118c382600083611d3d565b60008060008473ffffffffffffffffffffffffffffffffffffffff1673ffffffffffffffffffffffffffffffffffffffff16815260200190815260200160002054905081811015611949576040517f08c379a00000000000000000000000000000000000000000000000000000000081526004016119409061319c565b60405180910390fd5b8181036000808573ffffffffffffffffffffffffffffffffffffffff1673ffffffffffffffffffffffffffffffffffffffff1681526020019081526020016000208190555081600260008282546119a091906134da565b92505081905550600073ffffffffffffffffffffffffffffffffffffffff168373ffffffffffffffffffffffffffffffffffffffff167fddf252ad1be2c89b69c2b068fc378daa952ba7f163c4a11628f55a4df523b3ef84604051611a05919061339c565b60405180910390a3611a1983600084611d95565b505050565b60008060008411611a64576040517f08c379a0000000000000000000000000000000000000000000000000000000008152600401611a5b9061333c565b60405180910390fd5b611a6c611e71565b841115611aae576040517f08c379a0000000000000000000000000000000000000000000000000000000008152600401611aa59061311c565b60405180910390fd5b6000611ac68585600001611e8290919063ffffffff16565b90508360000180549050811415611ae4576000809250925050611b33565b6001846001018281548110611b22577f4e487b7100000000000000000000000000000000000000000000000000000000600052603260045260246000fd5b906000526020600020015492509250505b9250929050565b611b42610962565b15611b82576040517f08c379a0000000000000000000000000000000000000000000000000000000008152600401611b799061327c565b60405180910390fd5b6001600a60006101000a81548160ff0219169083151502179055507f62e78cea01bee320cd4e420270b5ea74000d11b0c9f74754ebdbfc544b05a258611bc6610fd4565b604051611bd39190612f90565b60405180910390a1565b6000611be96008611fa8565b6000611bf3611e71565b90507f8030e83b04d87bef53480e26263266d6ca66863aa8506aca6f2559d18aa1cb6781604051611c24919061339c565b60405180910390a18091505090565b600080600b60008473ffffffffffffffffffffffffffffffffffffffff1673ffffffffffffffffffffffffffffffffffffffff1681526020019081526020016000209050611c8081610f5c565b9150611c8b81611fa8565b50919050565b6000611ca4611c9e6115a9565b83611fbe565b9050919050565b6000806000611cbc87878787611ff1565b91509150611cc9816120fe565b8192505050949350505050565b611d26600560008373ffffffffffffffffffffffffffffffffffffffff1673ffffffffffffffffffffffffffffffffffffffff168152602001908152602001600020611d218361099d565b61244f565b50565b611d3b6006611d3661075d565b61244f565b565b611d45610962565b15611d85576040517f08c379a0000000000000000000000000000000000000000000000000000000008152600401611d7c9061327c565b60405180910390fd5b611d90838383610e9d565b505050565b505050565b611da48282610a8a565b611e3357611dc98173ffffffffffffffffffffffffffffffffffffffff1660146124ca565b611dd78360001c60206124ca565b604051602001611de8929190612f56565b6040516020818303038152906040526040517f08c379a0000000000000000000000000000000000000000000000000000000008152600401611e2a91906130da565b60405180910390fd5b5050565b60008383834630604051602001611e52959493929190613042565b6040516020818303038152906040528051906020012090509392505050565b6000611e7d6008610f5c565b905090565b60008083805490501415611e995760009050611fa2565b600080848054905090505b80821015611f23576000611eb883836127c4565b905084868281548110611ef4577f4e487b7100000000000000000000000000000000000000000000000000000000600052603260045260246000fd5b90600052602060002001541115611f0d57809150611f1d565b600181611f1a91906133f9565b92505b50611ea4565b600082118015611f8157508385600184611f3d91906134da565b81548110611f74577f4e487b7100000000000000000000000000000000000000000000000000000000600052603260045260246000fd5b9060005260206000200154145b15611f9c57600182611f9391906134da565b92505050611fa2565b81925050505b92915050565b6001816000016000828254019250508190555050565b60008282604051602001611fd3929190612f1f565b60405160208183030381529060405280519060200120905092915050565b6000807f7fffffffffffffffffffffffffffffff5d576e7357a4501ddfe92f46681b20a08360001c111561202c5760006003915091506120f5565b601b8560ff16141580156120445750601c8560ff1614155b156120565760006004915091506120f5565b60006001878787876040516000815260200160405260405161207b9493929190613095565b6020604051602081039080840390855afa15801561209d573d6000803e3d6000fd5b505050602060405103519050600073ffffffffffffffffffffffffffffffffffffffff168173ffffffffffffffffffffffffffffffffffffffff1614156120ec576000600192509250506120f5565b80600092509250505b94509492505050565b60006004811115612138577f4e487b7100000000000000000000000000000000000000000000000000000000600052602160045260246000fd5b816004811115612171577f4e487b7100000000000000000000000000000000000000000000000000000000600052602160045260246000fd5b141561217c5761244c565b600160048111156121b6577f4e487b7100000000000000000000000000000000000000000000000000000000600052602160045260246000fd5b8160048111156121ef577f4e487b7100000000000000000000000000000000000000000000000000000000600052602160045260246000fd5b1415612230576040517f08c379a0000000000000000000000000000000000000000000000000000000008152600401612227906130fc565b60405180910390fd5b6002600481111561226a577f4e487b7100000000000000000000000000000000000000000000000000000000600052602160045260246000fd5b8160048111156122a3577f4e487b7100000000000000000000000000000000000000000000000000000000600052602160045260246000fd5b14156122e4576040517f08c379a00000000000000000000000000000000000000000000000000000000081526004016122db906131bc565b60405180910390fd5b6003600481111561231e577f4e487b7100000000000000000000000000000000000000000000000000000000600052602160045260246000fd5b816004811115612357577f4e487b7100000000000000000000000000000000000000000000000000000000600052602160045260246000fd5b1415612398576040517f08c379a000000000000000000000000000000000000000000000000000000000815260040161238f9061325c565b60405180910390fd5b6004808111156123d1577f4e487b7100000000000000000000000000000000000000000000000000000000600052602160045260246000fd5b81600481111561240a577f4e487b7100000000000000000000000000000000000000000000000000000000600052602160045260246000fd5b141561244b576040517f08c379a00000000000000000000000000000000000000000000000000000000081526004016124429061329c565b60405180910390fd5b5b50565b6000612459611e71565b905080612468846000016127ea565b10156124c55782600001819080600181540180825580915050600190039060005260206000200160009091909190915055826001018290806001815401808255809150506001900390600052602060002001600090919091909150555b505050565b6060600060028360026124dd9190613480565b6124e791906133f9565b67ffffffffffffffff811115612526577f4e487b7100000000000000000000000000000000000000000000000000000000600052604160045260246000fd5b6040519080825280601f01601f1916602001820160405280156125585781602001600182028036833780820191505090505b5090507f3000000000000000000000000000000000000000000000000000000000000000816000815181106125b6577f4e487b7100000000000000000000000000000000000000000000000000000000600052603260045260246000fd5b60200101907effffffffffffffffffffffffffffffffffffffffffffffffffffffffffffff1916908160001a9053507f780000000000000000000000000000000000000000000000000000000000000081600181518110612640577f4e487b7100000000000000000000000000000000000000000000000000000000600052603260045260246000fd5b60200101907effffffffffffffffffffffffffffffffffffffffffffffffffffffffffffff1916908160001a905350600060018460026126809190613480565b61268a91906133f9565b90505b6001811115612776577f3031323334353637383961626364656600000000000000000000000000000000600f8616601081106126f2577f4e487b7100000000000000000000000000000000000000000000000000000000600052603260045260246000fd5b1a60f81b82828151811061272f577f4e487b7100000000000000000000000000000000000000000000000000000000600052603260045260246000fd5b60200101907effffffffffffffffffffffffffffffffffffffffffffffffffffffffffffff1916908160001a905350600485901c94508061276f906135cc565b905061268d565b50600084146127ba576040517f08c379a00000000000000000000000000000000000000000000000000000000081526004016127b19061313c565b60405180910390fd5b8091505092915050565b600060028284186127d5919061344f565b8284166127e291906133f9565b905092915050565b600080828054905014156128015760009050612858565b816001838054905061281391906134da565b8154811061284a577f4e487b7100000000000000000000000000000000000000000000000000000000600052603260045260246000fd5b906000526020600020015490505b919050565b60008135905061286c81613c4a565b92915050565b60008135905061288181613c61565b92915050565b60008135905061289681613c78565b92915050565b6000813590506128ab81613c8f565b92915050565b6000813590506128c081613ca6565b92915050565b6000602082840312156128d857600080fd5b60006128e68482850161285d565b91505092915050565b6000806040838503121561290257600080fd5b60006129108582860161285d565b92505060206129218582860161285d565b9150509250929050565b60008060006060848603121561294057600080fd5b600061294e8682870161285d565b935050602061295f8682870161285d565b92505060406129708682870161289c565b9150509250925092565b600080600080600080600060e0888a03121561299557600080fd5b60006129a38a828b0161285d565b97505060206129b48a828b0161285d565b96505060406129c58a828b0161289c565b95505060606129d68a828b0161289c565b94505060806129e78a828b016128b1565b93505060a06129f88a828b01612872565b92505060c0612a098a828b01612872565b91505092959891949750929550565b60008060408385031215612a2b57600080fd5b6000612a398582860161285d565b9250506020612a4a8582860161289c565b9150509250929050565b600060208284031215612a6657600080fd5b6000612a7484828501612872565b91505092915050565b60008060408385031215612a9057600080fd5b6000612a9e85828601612872565b9250506020612aaf8582860161285d565b9150509250929050565b600060208284031215612acb57600080fd5b6000612ad984828501612887565b91505092915050565b600060208284031215612af457600080fd5b6000612b028482850161289c565b91505092915050565b612b148161350e565b82525050565b612b2381613520565b82525050565b612b328161352c565b82525050565b612b49612b448261352c565b613628565b82525050565b6000612b5a826133d2565b612b6481856133dd565b9350612b74818560208601613599565b612b7d816136bf565b840191505092915050565b6000612b93826133d2565b612b9d81856133ee565b9350612bad818560208601613599565b80840191505092915050565b6000612bc66018836133dd565b9150612bd1826136d0565b602082019050919050565b6000612be9601d836133dd565b9150612bf4826136f9565b602082019050919050565b6000612c0c6020836133dd565b9150612c1782613722565b602082019050919050565b6000612c2f6023836133dd565b9150612c3a8261374b565b604082019050919050565b6000612c526014836133dd565b9150612c5d8261379a565b602082019050919050565b6000612c756022836133dd565b9150612c80826137c3565b604082019050919050565b6000612c98601f836133dd565b9150612ca382613812565b602082019050919050565b6000612cbb6022836133dd565b9150612cc68261383b565b604082019050919050565b6000612cde6002836133ee565b9150612ce98261388a565b600282019050919050565b6000612d01601d836133dd565b9150612d0c826138b3565b602082019050919050565b6000612d24601d836133dd565b9150612d2f826138dc565b602082019050919050565b6000612d476026836133dd565b9150612d5282613905565b604082019050919050565b6000612d6a6022836133dd565b9150612d7582613954565b604082019050919050565b6000612d8d6010836133dd565b9150612d98826139a3565b602082019050919050565b6000612db06022836133dd565b9150612dbb826139cc565b604082019050919050565b6000612dd3601e836133dd565b9150612dde82613a1b565b602082019050919050565b6000612df66021836133dd565b9150612e0182613a44565b604082019050919050565b6000612e196025836133dd565b9150612e2482613a93565b604082019050919050565b6000612e3c6024836133dd565b9150612e4782613ae2565b604082019050919050565b6000612e5f6016836133dd565b9150612e6a82613b31565b602082019050919050565b6000612e826017836133ee565b9150612e8d82613b5a565b601782019050919050565b6000612ea56025836133dd565b9150612eb082613b83565b604082019050919050565b6000612ec86011836133ee565b9150612ed382613bd2565b601182019050919050565b6000612eeb602f836133dd565b9150612ef682613bfb565b604082019050919050565b612f0a81613582565b82525050565b612f198161358c565b82525050565b6000612f2a82612cd1565b9150612f368285612b38565b602082019150612f468284612b38565b6020820191508190509392505050565b6000612f6182612e75565b9150612f6d8285612b88565b9150612f7882612ebb565b9150612f848284612b88565b91508190509392505050565b6000602082019050612fa56000830184612b0b565b92915050565b6000602082019050612fc06000830184612b1a565b92915050565b6000602082019050612fdb6000830184612b29565b92915050565b600060c082019050612ff66000830189612b29565b6130036020830188612b0b565b6130106040830187612b0b565b61301d6060830186612f01565b61302a6080830185612f01565b61303760a0830184612f01565b979650505050505050565b600060a0820190506130576000830188612b29565b6130646020830187612b29565b6130716040830186612b29565b61307e6060830185612f01565b61308b6080830184612b0b565b9695505050505050565b60006080820190506130aa6000830187612b29565b6130b76020830186612f10565b6130c46040830185612b29565b6130d16060830184612b29565b95945050505050565b600060208201905081810360008301526130f48184612b4f565b905092915050565b6000602082019050818103600083015261311581612bb9565b9050919050565b6000602082019050818103600083015261313581612bdc565b9050919050565b6000602082019050818103600083015261315581612bff565b9050919050565b6000602082019050818103600083015261317581612c22565b9050919050565b6000602082019050818103600083015261319581612c45565b9050919050565b600060208201905081810360008301526131b581612c68565b9050919050565b600060208201905081810360008301526131d581612c8b565b9050919050565b600060208201905081810360008301526131f581612cae565b9050919050565b6000602082019050818103600083015261321581612cf4565b9050919050565b6000602082019050818103600083015261323581612d17565b9050919050565b6000602082019050818103600083015261325581612d3a565b9050919050565b6000602082019050818103600083015261327581612d5d565b9050919050565b6000602082019050818103600083015261329581612d80565b9050919050565b600060208201905081810360008301526132b581612da3565b9050919050565b600060208201905081810360008301526132d581612dc6565b9050919050565b600060208201905081810360008301526132f581612de9565b9050919050565b6000602082019050818103600083015261331581612e0c565b9050919050565b6000602082019050818103600083015261333581612e2f565b9050919050565b6000602082019050818103600083015261335581612e52565b9050919050565b6000602082019050818103600083015261337581612e98565b9050919050565b6000602082019050818103600083015261339581612ede565b9050919050565b60006020820190506133b16000830184612f01565b92915050565b60006020820190506133cc6000830184612f10565b92915050565b600081519050919050565b600082825260208201905092915050565b600081905092915050565b600061340482613582565b915061340f83613582565b9250827fffffffffffffffffffffffffffffffffffffffffffffffffffffffffffffffff0382111561344457613443613632565b5b828201905092915050565b600061345a82613582565b915061346583613582565b92508261347557613474613661565b5b828204905092915050565b600061348b82613582565b915061349683613582565b9250817fffffffffffffffffffffffffffffffffffffffffffffffffffffffffffffffff04831182151516156134cf576134ce613632565b5b828202905092915050565b60006134e582613582565b91506134f083613582565b92508282101561350357613502613632565b5b828203905092915050565b600061351982613562565b9050919050565b60008115159050919050565b6000819050919050565b60007fffffffff0000000000000000000000000000000000000000000000000000000082169050919050565b600073ffffffffffffffffffffffffffffffffffffffff82169050919050565b6000819050919050565b600060ff82169050919050565b60005b838110156135b757808201518184015260208101905061359c565b838111156135c6576000848401525b50505050565b60006135d782613582565b915060008214156135eb576135ea613632565b5b600182039050919050565b6000600282049050600182168061360e57607f821691505b6020821081141561362257613621613690565b5b50919050565b6000819050919050565b7f4e487b7100000000000000000000000000000000000000000000000000000000600052601160045260246000fd5b7f4e487b7100000000000000000000000000000000000000000000000000000000600052601260045260246000fd5b7f4e487b7100000000000000000000000000000000000000000000000000000000600052602260045260246000fd5b6000601f19601f8301169050919050565b7f45434453413a20696e76616c6964207369676e61747572650000000000000000600082015250565b7f4552433230536e617073686f743a206e6f6e6578697374656e74206964000000600082015250565b7f537472696e67733a20686578206c656e67746820696e73756666696369656e74600082015250565b7f45524332303a207472616e7366657220746f20746865207a65726f206164647260008201527f6573730000000000000000000000000000000000000000000000000000000000602082015250565b7f5061757361626c653a206e6f7420706175736564000000000000000000000000600082015250565b7f45524332303a206275726e20616d6f756e7420657863656564732062616c616e60008201527f6365000000000000000000000000000000000000000000000000000000000000602082015250565b7f45434453413a20696e76616c6964207369676e6174757265206c656e67746800600082015250565b7f45524332303a20617070726f766520746f20746865207a65726f20616464726560008201527f7373000000000000000000000000000000000000000000000000000000000000602082015250565b7f1901000000000000000000000000000000000000000000000000000000000000600082015250565b7f45524332303a20696e73756666696369656e7420616c6c6f77616e6365000000600082015250565b7f45524332305065726d69743a206578706972656420646561646c696e65000000600082015250565b7f45524332303a207472616e7366657220616d6f756e742065786365656473206260008201527f616c616e63650000000000000000000000000000000000000000000000000000602082015250565b7f45434453413a20696e76616c6964207369676e6174757265202773272076616c60008201527f7565000000000000000000000000000000000000000000000000000000000000602082015250565b7f5061757361626c653a2070617573656400000000000000000000000000000000600082015250565b7f45434453413a20696e76616c6964207369676e6174757265202776272076616c60008201527f7565000000000000000000000000000000000000000000000000000000000000602082015250565b7f45524332305065726d69743a20696e76616c6964207369676e61747572650000600082015250565b7f45524332303a206275726e2066726f6d20746865207a65726f2061646472657360008201527f7300000000000000000000000000000000000000000000000000000000000000602082015250565b7f45524332303a207472616e736665722066726f6d20746865207a65726f20616460008201527f6472657373000000000000000000000000000000000000000000000000000000602082015250565b7f45524332303a20617070726f76652066726f6d20746865207a65726f2061646460008201527f7265737300000000000000000000000000000000000000000000000000000000602082015250565b7f4552433230536e617073686f743a206964206973203000000000000000000000600082015250565b7f416363657373436f6e74726f6c3a206163636f756e7420000000000000000000600082015250565b7f45524332303a2064656372656173656420616c6c6f77616e63652062656c6f7760008201527f207a65726f000000000000000000000000000000000000000000000000000000602082015250565b7f206973206d697373696e6720726f6c6520000000000000000000000000000000600082015250565b7f416363657373436f6e74726f6c3a2063616e206f6e6c792072656e6f756e636560008201527f20726f6c657320666f722073656c660000000000000000000000000000000000602082015250565b613c538161350e565b8114613c5e57600080fd5b50565b613c6a8161352c565b8114613c7557600080fd5b50565b613c8181613536565b8114613c8c57600080fd5b50565b613c9881613582565b8114613ca357600080fd5b50565b613caf8161358c565b8114613cba57600080fd5b5056fea26469706673582212208172314e48f8b8bc9a3598c1bd011d09edb4d5b6d1e40a8c1078e5f3f80f967264736f6c63430008040033",
  "linkReferences": {},
  "deployedLinkReferences": {}
}